{
  "contractName": "Auction",
  "abi": [
    {
      "inputs": [],
      "stateMutability": "nonpayable",
      "type": "constructor"
    },
    {
      "inputs": [],
      "name": "highestBid",
      "outputs": [
        {
          "internalType": "uint256",
          "name": "",
          "type": "uint256"
        }
      ],
      "stateMutability": "view",
      "type": "function",
      "constant": true
    },
    {
      "inputs": [],
      "name": "highestBidder",
      "outputs": [
        {
          "internalType": "address",
          "name": "",
          "type": "address"
        }
      ],
      "stateMutability": "view",
      "type": "function",
      "constant": true
    },
    {
      "inputs": [
        {
          "internalType": "address",
          "name": "",
          "type": "address"
        }
      ],
      "name": "userBalances",
      "outputs": [
        {
          "internalType": "uint256",
          "name": "",
          "type": "uint256"
        }
      ],
      "stateMutability": "view",
      "type": "function",
      "constant": true
    },
    {
      "stateMutability": "payable",
      "type": "receive",
      "payable": true
    },
    {
      "inputs": [],
      "name": "bid",
      "outputs": [],
      "stateMutability": "payable",
      "type": "function",
      "payable": true
    },
    {
      "inputs": [],
      "name": "withdraw",
      "outputs": [],
      "stateMutability": "nonpayable",
      "type": "function"
    },
    {
      "inputs": [],
      "name": "getContractBalance",
      "outputs": [
        {
          "internalType": "uint256",
          "name": "",
          "type": "uint256"
        }
      ],
      "stateMutability": "view",
      "type": "function",
      "constant": true
    },
    {
      "inputs": [
        {
          "internalType": "address",
          "name": "_bidder",
          "type": "address"
        }
      ],
      "name": "getAccountBalance",
      "outputs": [
        {
          "internalType": "uint256",
          "name": "",
          "type": "uint256"
        }
      ],
      "stateMutability": "view",
      "type": "function",
      "constant": true
    },
    {
      "inputs": [],
      "name": "isTheHighestBidder",
      "outputs": [
        {
          "internalType": "bool",
          "name": "",
          "type": "bool"
        }
      ],
      "stateMutability": "view",
      "type": "function",
      "constant": true
    }
  ],
  "bytecode": "0x608060405234801561001057600080fd5b50336000806101000a81548173ffffffffffffffffffffffffffffffffffffffff021916908373ffffffffffffffffffffffffffffffffffffffff16021790555060006001819055506108bd806100686000396000f3fe60806040526004361061007f5760003560e01c806391f901571161004e57806391f901571461011457806393423e9c1461013f578063d57bde791461017c578063eb0ae279146101a757610086565b80631998aeef1461008b57806326224c64146100955780633ccfd60b146100d25780636f9fb98a146100e957610086565b3661008657005b600080fd5b6100936101d2565b005b3480156100a157600080fd5b506100bc60048036038101906100b791906105a7565b610337565b6040516100c991906106fc565b60405180910390f35b3480156100de57600080fd5b506100e761034f565b005b3480156100f557600080fd5b506100fe6104d7565b60405161010b91906106fc565b60405180910390f35b34801561012057600080fd5b506101296104df565b6040516101369190610666565b60405180910390f35b34801561014b57600080fd5b50610166600480360381019061016191906105a7565b610503565b60405161017391906106fc565b60405180910390f35b34801561018857600080fd5b50610191610524565b60405161019e91906106fc565b60405180910390f35b3480156101b357600080fd5b506101bc61052a565b6040516101c99190610681565b60405180910390f35b6001543411610216576040517f08c379a000000000000000000000000000000000000000000000000000000000815260040161020d906106dc565b60405180910390fd5b6000600260008060009054906101000a900473ffffffffffffffffffffffffffffffffffffffff1673ffffffffffffffffffffffffffffffffffffffff1673ffffffffffffffffffffffffffffffffffffffff168152602001908152602001600020549050806001546102899190610728565b600260008060009054906101000a900473ffffffffffffffffffffffffffffffffffffffff1673ffffffffffffffffffffffffffffffffffffffff1673ffffffffffffffffffffffffffffffffffffffff1681526020019081526020016000208190555034600181905550336000806101000a81548173ffffffffffffffffffffffffffffffffffffffff021916908373ffffffffffffffffffffffffffffffffffffffff16021790555050565b60026020528060005260406000206000915090505481565b6000600260003373ffffffffffffffffffffffffffffffffffffffff1673ffffffffffffffffffffffffffffffffffffffff16815260200190815260200160002054116103d1576040517f08c379a00000000000000000000000000000000000000000000000000000000081526004016103c89061069c565b60405180910390fd5b60003390506000600260003373ffffffffffffffffffffffffffffffffffffffff1673ffffffffffffffffffffffffffffffffffffffff1681526020019081526020016000205490506000600260003373ffffffffffffffffffffffffffffffffffffffff1673ffffffffffffffffffffffffffffffffffffffff168152602001908152602001600020819055508173ffffffffffffffffffffffffffffffffffffffff166108fc829081150290604051600060405180830381858888f193505050506104d3576040517f08c379a00000000000000000000000000000000000000000000000000000000081526004016104ca906106bc565b60405180910390fd5b5050565b600047905090565b60008054906101000a900473ffffffffffffffffffffffffffffffffffffffff1681565b60008173ffffffffffffffffffffffffffffffffffffffff16319050919050565b60015481565b60008060009054906101000a900473ffffffffffffffffffffffffffffffffffffffff1673ffffffffffffffffffffffffffffffffffffffff163373ffffffffffffffffffffffffffffffffffffffff16141561058a576001905061058f565b600090505b90565b6000813590506105a181610870565b92915050565b6000602082840312156105b957600080fd5b60006105c784828501610592565b91505092915050565b6105d98161077e565b82525050565b6105e881610790565b82525050565b60006105fb602083610717565b9150610606826107f5565b602082019050919050565b600061061e601e83610717565b91506106298261081e565b602082019050919050565b6000610641601b83610717565b915061064c82610847565b602082019050919050565b610660816107bc565b82525050565b600060208201905061067b60008301846105d0565b92915050565b600060208201905061069660008301846105df565b92915050565b600060208201905081810360008301526106b5816105ee565b9050919050565b600060208201905081810360008301526106d581610611565b9050919050565b600060208201905081810360008301526106f581610634565b9050919050565b60006020820190506107116000830184610657565b92915050565b600082825260208201905092915050565b6000610733826107bc565b915061073e836107bc565b9250827fffffffffffffffffffffffffffffffffffffffffffffffffffffffffffffffff03821115610773576107726107c6565b5b828201905092915050565b60006107898261079c565b9050919050565b60008115159050919050565b600073ffffffffffffffffffffffffffffffffffffffff82169050919050565b6000819050919050565b7f4e487b7100000000000000000000000000000000000000000000000000000000600052601160045260246000fd5b7f596f752068617665206e6f2062616c616e636520746f20776974686472617721600082015250565b7f436f756c64206e6f742072657475726e20796f75722062616c616e6365210000600082015250565b7f596f7572206269642069736e2774206869676820656e6f756768210000000000600082015250565b6108798161077e565b811461088457600080fd5b5056fea2646970667358221220ce7bca75f5a60e873f0b2c787694d4cc8958168c689b50768f113d5ef91b06b364736f6c63430008030033",
  "immutableReferences": {},
  "source": "// SPDX-License-Identifier: GPL-3.0\r\n\r\npragma solidity >=0.7.0 <0.9.0;\r\n\r\ncontract Auction{\r\n    \r\n    address public highestBidder; \r\n    uint public highestBid; \r\n    mapping(address => uint) public userBalances; \r\n    \r\n    constructor() {\r\n        highestBidder = msg.sender;\r\n        highestBid = 0;\r\n    }\r\n    \r\n    modifier canWithdraw(){\r\n        require(userBalances[msg.sender] > 0,\"You have no balance to withdraw!\");\r\n        _;\r\n    }\r\n    \r\n    function bid() payable public {\r\n        require(msg.value > highestBid,\"Your bid isn't high enough!\");\r\n        uint b = userBalances[highestBidder];\r\n        userBalances[highestBidder] = highestBid + b;\r\n        highestBid = msg.value;\r\n        highestBidder = msg.sender;\r\n    }\r\n    \r\n    function withdraw() public canWithdraw {\r\n        address payable sender = payable(msg.sender);\r\n        uint b = userBalances[msg.sender];\r\n        userBalances[msg.sender] = 0;\r\n        require(sender.send(b),\"Could not return your balance!\");\r\n    } \r\n    \r\n    function getContractBalance() public view returns(uint){\r\n        return address(this).balance;\r\n    }\r\n      \r\n    function getAccountBalance(address _bidder) public view returns(uint){\r\n        return address(_bidder).balance;\r\n    }\r\n    \r\n    function isTheHighestBidder()public view returns(bool){\r\n        if(msg.sender == highestBidder){\r\n            return true;\r\n        }\r\n        return false;\r\n    }\r\n    \r\n    receive() external payable{} \r\n}\r\n",
  "sourcePath": "/home/ubuntu/BlockChain/AuctionApp/contracts/Auction.sol",
  "compiler": {
    "name": "solc",
    "version": "0.8.3+commit.8d00100c.Emscripten.clang"
  },
  "schemaVersion": "3.4.1",
  "updatedAt": "2021-05-26T19:34:27.294Z",
  "networkType": "ethereum",
  "devdoc": {
    "kind": "dev",
    "methods": {},
    "version": 1
  },
  "userdoc": {
    "kind": "user",
    "methods": {},
    "version": 1
  }
}